{
  "_format": "hh-sol-artifact-1",
  "contractName": "TimeLockedWallet",
  "sourceName": "contracts/timelocked.sol",
  "abi": [
    {
      "inputs": [
        {
          "internalType": "address",
          "name": "_beneficiary",
          "type": "address"
        },
        {
          "internalType": "uint256",
          "name": "_releaseTime",
          "type": "uint256"
        }
      ],
      "stateMutability": "nonpayable",
      "type": "constructor"
    },
    {
      "anonymous": false,
      "inputs": [
        {
          "indexed": true,
          "internalType": "address",
          "name": "sender",
          "type": "address"
        },
        {
          "indexed": false,
          "internalType": "uint256",
          "name": "amount",
          "type": "uint256"
        },
        {
          "indexed": false,
          "internalType": "uint256",
          "name": "time",
          "type": "uint256"
        }
      ],
      "name": "Deposited",
      "type": "event"
    },
    {
      "anonymous": false,
      "inputs": [
        {
          "indexed": true,
          "internalType": "address",
          "name": "beneficiary",
          "type": "address"
        },
        {
          "indexed": false,
          "internalType": "uint256",
          "name": "amount",
          "type": "uint256"
        }
      ],
      "name": "Withdrawn",
      "type": "event"
    },
    {
      "inputs": [],
      "name": "beneficiary",
      "outputs": [
        {
          "internalType": "address",
          "name": "",
          "type": "address"
        }
      ],
      "stateMutability": "view",
      "type": "function"
    },
    {
      "inputs": [],
      "name": "getBalance",
      "outputs": [
        {
          "internalType": "uint256",
          "name": "",
          "type": "uint256"
        }
      ],
      "stateMutability": "view",
      "type": "function"
    },
    {
      "inputs": [],
      "name": "releaseTime",
      "outputs": [
        {
          "internalType": "uint256",
          "name": "",
          "type": "uint256"
        }
      ],
      "stateMutability": "view",
      "type": "function"
    },
    {
      "inputs": [],
      "name": "timeUntilRelease",
      "outputs": [
        {
          "internalType": "uint256",
          "name": "",
          "type": "uint256"
        }
      ],
      "stateMutability": "view",
      "type": "function"
    },
    {
      "inputs": [],
      "name": "withdraw",
      "outputs": [],
      "stateMutability": "nonpayable",
      "type": "function"
    },
    {
      "stateMutability": "payable",
      "type": "receive"
    }
  ],
  "bytecode": "0x608060405234801561001057600080fd5b506040516108fa3803806108fa8339818101604052810190610032919061015b565b428111610074576040517f08c379a000000000000000000000000000000000000000000000000000000000815260040161006b9061021e565b60405180910390fd5b816000806101000a81548173ffffffffffffffffffffffffffffffffffffffff021916908373ffffffffffffffffffffffffffffffffffffffff16021790555080600181905550505061023e565b600080fd5b600073ffffffffffffffffffffffffffffffffffffffff82169050919050565b60006100f2826100c7565b9050919050565b610102816100e7565b811461010d57600080fd5b50565b60008151905061011f816100f9565b92915050565b6000819050919050565b61013881610125565b811461014357600080fd5b50565b6000815190506101558161012f565b92915050565b60008060408385031215610172576101716100c2565b5b600061018085828601610110565b925050602061019185828601610146565b9150509250929050565b600082825260208201905092915050565b7f52656c656173652074696d652073686f756c6420626520696e2074686520667560008201527f7475726500000000000000000000000000000000000000000000000000000000602082015250565b600061020860248361019b565b9150610213826101ac565b604082019050919050565b60006020820190508181036000830152610237816101fb565b9050919050565b6106ad8061024d6000396000f3fe60806040526004361061004e5760003560e01c806311fee2f7146100aa57806312065fe0146100d557806338af3eed146101005780633ccfd60b1461012b578063b91d400114610142576100a5565b366100a5573373ffffffffffffffffffffffffffffffffffffffff167f73a19dd210f1a7f902193214c0ee91dd35ee5b4d920cba8d519eca65a7b488ca344260405161009b9291906103d3565b60405180910390a2005b600080fd5b3480156100b657600080fd5b506100bf61016d565b6040516100cc91906103fc565b60405180910390f35b3480156100e157600080fd5b506100ea610195565b6040516100f791906103fc565b60405180910390f35b34801561010c57600080fd5b5061011561019d565b6040516101229190610458565b60405180910390f35b34801561013757600080fd5b506101406101c1565b005b34801561014e57600080fd5b506101576103b4565b60405161016491906103fc565b60405180910390f35b600060015442106101815760009050610192565b4260015461018f91906104a2565b90505b90565b600047905090565b60008054906101000a900473ffffffffffffffffffffffffffffffffffffffff1681565b600154421015610206576040517f08c379a00000000000000000000000000000000000000000000000000000000081526004016101fd90610559565b60405180910390fd5b60008054906101000a900473ffffffffffffffffffffffffffffffffffffffff1673ffffffffffffffffffffffffffffffffffffffff163373ffffffffffffffffffffffffffffffffffffffff1614610294576040517f08c379a000000000000000000000000000000000000000000000000000000000815260040161028b906105eb565b60405180910390fd5b6000479050600081116102dc576040517f08c379a00000000000000000000000000000000000000000000000000000000081526004016102d390610657565b60405180910390fd5b60008054906101000a900473ffffffffffffffffffffffffffffffffffffffff1673ffffffffffffffffffffffffffffffffffffffff166108fc829081150290604051600060405180830381858888f19350505050158015610342573d6000803e3d6000fd5b5060008054906101000a900473ffffffffffffffffffffffffffffffffffffffff1673ffffffffffffffffffffffffffffffffffffffff167f7084f5476618d8e60b11ef0d7d3f06914655adb8793e28ff7f018d4c76d505d5826040516103a991906103fc565b60405180910390a250565b60015481565b6000819050919050565b6103cd816103ba565b82525050565b60006040820190506103e860008301856103c4565b6103f560208301846103c4565b9392505050565b600060208201905061041160008301846103c4565b92915050565b600073ffffffffffffffffffffffffffffffffffffffff82169050919050565b600061044282610417565b9050919050565b61045281610437565b82525050565b600060208201905061046d6000830184610449565b92915050565b7f4e487b7100000000000000000000000000000000000000000000000000000000600052601160045260246000fd5b60006104ad826103ba565b91506104b8836103ba565b92508282039050818111156104d0576104cf610473565b5b92915050565b600082825260208201905092915050565b7f43757272656e742074696d65206973206265666f72652072656c65617365207460008201527f696d650000000000000000000000000000000000000000000000000000000000602082015250565b60006105436023836104d6565b915061054e826104e7565b604082019050919050565b6000602082019050818103600083015261057281610536565b9050919050565b7f4f6e6c79207468652062656e65666963696172792063616e207769746864726160008201527f77207468652066756e6473000000000000000000000000000000000000000000602082015250565b60006105d5602b836104d6565b91506105e082610579565b604082019050919050565b60006020820190508181036000830152610604816105c8565b9050919050565b7f4e6f2066756e647320746f207769746864726177000000000000000000000000600082015250565b60006106416014836104d6565b915061064c8261060b565b602082019050919050565b6000602082019050818103600083015261067081610634565b905091905056fea264697066735822122029085e13013c8da52a93a4ee89fe3cf75a36ecfa80089f7311c6b1a1e086350c64736f6c63430008180033",
  "linkReferences": {},
  "deployedLinkReferences": {}
}